{
  "_format": "hh-sol-artifact-1",
  "contractName": "Auth",
  "sourceName": "contracts/auth.sol",
  "abi": [
    {
      "anonymous": false,
      "inputs": [
        {
          "indexed": true,
          "internalType": "uint256",
          "name": "groupId",
          "type": "uint256"
        },
        {
          "indexed": false,
          "internalType": "uint8",
          "name": "depth",
          "type": "uint8"
        },
        {
          "indexed": false,
          "internalType": "uint256",
          "name": "zeroValue",
          "type": "uint256"
        }
      ],
      "name": "GroupCreated",
      "type": "event"
    },
    {
      "anonymous": false,
      "inputs": [
        {
          "indexed": true,
          "internalType": "uint256",
          "name": "groupId",
          "type": "uint256"
        },
        {
          "indexed": false,
          "internalType": "uint256",
          "name": "identityCommitment",
          "type": "uint256"
        },
        {
          "indexed": false,
          "internalType": "uint256",
          "name": "root",
          "type": "uint256"
        }
      ],
      "name": "MemberAdded",
      "type": "event"
    },
    {
      "anonymous": false,
      "inputs": [
        {
          "indexed": true,
          "internalType": "uint256",
          "name": "groupId",
          "type": "uint256"
        },
        {
          "indexed": false,
          "internalType": "uint256",
          "name": "identityCommitment",
          "type": "uint256"
        },
        {
          "indexed": false,
          "internalType": "uint256",
          "name": "root",
          "type": "uint256"
        }
      ],
      "name": "MemberRemoved",
      "type": "event"
    },
    {
      "anonymous": false,
      "inputs": [
        {
          "indexed": false,
          "internalType": "uint256",
          "name": "nullifierHash",
          "type": "uint256"
        }
      ],
      "name": "NullifierHashAdded",
      "type": "event"
    },
    {
      "anonymous": false,
      "inputs": [
        {
          "indexed": true,
          "internalType": "address",
          "name": "previousOwner",
          "type": "address"
        },
        {
          "indexed": true,
          "internalType": "address",
          "name": "newOwner",
          "type": "address"
        }
      ],
      "name": "OwnershipTransferred",
      "type": "event"
    },
    {
      "inputs": [
        {
          "internalType": "address",
          "name": "pubKey",
          "type": "address"
        },
        {
          "internalType": "uint256",
          "name": "hash",
          "type": "uint256"
        }
      ],
      "name": "commitHash",
      "outputs": [],
      "stateMutability": "nonpayable",
      "type": "function"
    },
    {
      "inputs": [
        {
          "internalType": "string",
          "name": "commitment",
          "type": "string"
        }
      ],
      "name": "commitIdentity",
      "outputs": [],
      "stateMutability": "nonpayable",
      "type": "function"
    },
    {
      "inputs": [
        {
          "internalType": "string",
          "name": "domain",
          "type": "string"
        },
        {
          "internalType": "uint256",
          "name": "groupId",
          "type": "uint256"
        },
        {
          "internalType": "uint8",
          "name": "depth",
          "type": "uint8"
        },
        {
          "internalType": "uint256",
          "name": "zeroValue",
          "type": "uint256"
        },
        {
          "internalType": "address",
          "name": "admin",
          "type": "address"
        }
      ],
      "name": "createGroup",
      "outputs": [],
      "stateMutability": "nonpayable",
      "type": "function"
    },
    {
      "inputs": [
        {
          "internalType": "string",
          "name": "",
          "type": "string"
        }
      ],
      "name": "domainLookUp",
      "outputs": [
        {
          "internalType": "uint256",
          "name": "",
          "type": "uint256"
        }
      ],
      "stateMutability": "view",
      "type": "function"
    },
    {
      "inputs": [
        {
          "internalType": "uint256",
          "name": "groupId",
          "type": "uint256"
        }
      ],
      "name": "getDepth",
      "outputs": [
        {
          "internalType": "uint8",
          "name": "",
          "type": "uint8"
        }
      ],
      "stateMutability": "view",
      "type": "function"
    },
    {
      "inputs": [
        {
          "internalType": "uint256",
          "name": "groupId",
          "type": "uint256"
        }
      ],
      "name": "getNumberOfLeaves",
      "outputs": [
        {
          "internalType": "uint256",
          "name": "",
          "type": "uint256"
        }
      ],
      "stateMutability": "view",
      "type": "function"
    },
    {
      "inputs": [
        {
          "internalType": "address",
          "name": "pubKey",
          "type": "address"
        }
      ],
      "name": "getPubHash",
      "outputs": [
        {
          "internalType": "uint256",
          "name": "d",
          "type": "uint256"
        }
      ],
      "stateMutability": "view",
      "type": "function"
    },
    {
      "inputs": [
        {
          "internalType": "uint256",
          "name": "groupId",
          "type": "uint256"
        }
      ],
      "name": "getRoot",
      "outputs": [
        {
          "internalType": "uint256",
          "name": "",
          "type": "uint256"
        }
      ],
      "stateMutability": "view",
      "type": "function"
    },
    {
      "inputs": [
        {
          "internalType": "string",
          "name": "commitment",
          "type": "string"
        }
      ],
      "name": "isAuthenticated",
      "outputs": [
        {
          "internalType": "uint256",
          "name": "r",
          "type": "uint256"
        }
      ],
      "stateMutability": "view",
      "type": "function"
    },
    {
      "inputs": [],
      "name": "owner",
      "outputs": [
        {
          "internalType": "address",
          "name": "",
          "type": "address"
        }
      ],
      "stateMutability": "view",
      "type": "function"
    },
    {
      "inputs": [],
      "name": "renounceOwnership",
      "outputs": [],
      "stateMutability": "nonpayable",
      "type": "function"
    },
    {
      "inputs": [
        {
          "internalType": "address",
          "name": "newOwner",
          "type": "address"
        }
      ],
      "name": "transferOwnership",
      "outputs": [],
      "stateMutability": "nonpayable",
      "type": "function"
    },
    {
      "inputs": [
        {
          "internalType": "uint256[2]",
          "name": "a",
          "type": "uint256[2]"
        },
        {
          "internalType": "uint256[2][2]",
          "name": "b",
          "type": "uint256[2][2]"
        },
        {
          "internalType": "uint256[2]",
          "name": "c",
          "type": "uint256[2]"
        },
        {
          "internalType": "uint256[4]",
          "name": "input",
          "type": "uint256[4]"
        },
        {
          "internalType": "address",
          "name": "pubKey",
          "type": "address"
        },
        {
          "internalType": "uint256",
          "name": "commitment",
          "type": "uint256"
        }
      ],
      "name": "verifyHash",
      "outputs": [],
      "stateMutability": "nonpayable",
      "type": "function"
    },
    {
      "inputs": [
        {
          "internalType": "uint256[2]",
          "name": "a",
          "type": "uint256[2]"
        },
        {
          "internalType": "uint256[2][2]",
          "name": "b",
          "type": "uint256[2][2]"
        },
        {
          "internalType": "uint256[2]",
          "name": "c",
          "type": "uint256[2]"
        },
        {
          "internalType": "uint256[4]",
          "name": "input",
          "type": "uint256[4]"
        }
      ],
      "name": "verifyProof",
      "outputs": [
        {
          "internalType": "bool",
          "name": "r",
          "type": "bool"
        }
      ],
      "stateMutability": "view",
      "type": "function"
    }
  ],
  "bytecode": "0x60806040523480156200001157600080fd5b5062000032620000266200003860201b60201c565b6200004060201b60201c565b62000104565b600033905090565b60008060009054906101000a900473ffffffffffffffffffffffffffffffffffffffff169050816000806101000a81548173ffffffffffffffffffffffffffffffffffffffff021916908373ffffffffffffffffffffffffffffffffffffffff1602179055508173ffffffffffffffffffffffffffffffffffffffff168173ffffffffffffffffffffffffffffffffffffffff167f8be0079c531659141344cd1fd0a4f28419497f9722a3daafe3b4186f6b6457e060405160405180910390a35050565b613b6b80620001146000396000f3fe608060405234801561001057600080fd5b50600436106100ea5760003560e01c806375e618c91161008c5780638da5cb5b116100665780638da5cb5b146102595780639b24b3b014610277578063b9c78c2b146102a7578063f2fde38b146102d7576100ea565b806375e618c9146101f157806378f1f4b21461022157806383f49cd91461023d576100ea565b80635fe8c13b116100c85780635fe8c13b1461016b578063642a98941461019b5780636c4f05ba146101b7578063715018a6146101e7576100ea565b8063027f44c5146100ef57806328f051af1461010b578063291a05ca1461013b575b600080fd5b61010960048036038101906101049190612d5f565b6102f3565b005b61012560048036038101906101209190612c95565b610483565b604051610132919061338b565b60405180910390f35b61015560048036038101906101509190612dec565b610548565b604051610162919061338b565b60405180910390f35b61018560048036038101906101809190612cfa565b610576565b6040516101929190613170565b60405180910390f35b6101b560048036038101906101b09190612cbe565b610a2a565b005b6101d160048036038101906101cc9190612dec565b610aee565b6040516101de919061338b565b60405180910390f35b6101ef610b16565b005b61020b60048036038101906102069190612ebc565b610b9e565b60405161021891906133cf565b60405180910390f35b61023b60048036038101906102369190612dec565b610bcb565b005b61025760048036038101906102529190612e2d565b610bf2565b005b610261610c88565b60405161026e9190613155565b60405180910390f35b610291600480360381019061028c9190612ebc565b610cb1565b60405161029e919061338b565b60405180910390f35b6102c160048036038101906102bc9190612ebc565b610cd1565b6040516102ce919061338b565b60405180910390f35b6102f160048036038101906102ec9190612c95565b610cf1565b005b8260006004811061032d577f4e487b7100000000000000000000000000000000000000000000000000000000600052603260045260246000fd5b6020020151600360008473ffffffffffffffffffffffffffffffffffffffff1673ffffffffffffffffffffffffffffffffffffffff16815260200190815260200160002054146103b2576040517f08c379a00000000000000000000000000000000000000000000000000000000081526004016103a99061322b565b60405180910390fd5b60006103c087878787610576565b9050801561047a5783600360048110610402577f4e487b7100000000000000000000000000000000000000000000000000000000600052603260045260246000fd5b6020020151600461041284610de9565b60405161041f919061313e565b9081526020016040518091039020819055506104798460036004811061046e577f4e487b7100000000000000000000000000000000000000000000000000000000600052603260045260246000fd5b602002015183610f96565b5b50505050505050565b600061048d6110ae565b73ffffffffffffffffffffffffffffffffffffffff166104ab610c88565b73ffffffffffffffffffffffffffffffffffffffff1614610501576040517f08c379a00000000000000000000000000000000000000000000000000000000081526004016104f89061328b565b60405180910390fd5b600360008373ffffffffffffffffffffffffffffffffffffffff1673ffffffffffffffffffffffffffffffffffffffff168152602001908152602001600020549050919050565b6005818051602081018201805184825260208301602085012081835280955050505050506000915090505481565b600061058061290e565b6040518060400160405280876000600281106105c5577f4e487b7100000000000000000000000000000000000000000000000000000000600052603260045260246000fd5b6020020151815260200187600160028110610609577f4e487b7100000000000000000000000000000000000000000000000000000000600052603260045260246000fd5b602002015181525081600001819052506040518060400160405280604051806040016040528088600060028110610669577f4e487b7100000000000000000000000000000000000000000000000000000000600052603260045260246000fd5b60200201516000600281106106a7577f4e487b7100000000000000000000000000000000000000000000000000000000600052603260045260246000fd5b60200201518152602001886000600281106106eb577f4e487b7100000000000000000000000000000000000000000000000000000000600052603260045260246000fd5b6020020151600160028110610729577f4e487b7100000000000000000000000000000000000000000000000000000000600052603260045260246000fd5b6020020151815250815260200160405180604001604052808860016002811061077b577f4e487b7100000000000000000000000000000000000000000000000000000000600052603260045260246000fd5b60200201516000600281106107b9577f4e487b7100000000000000000000000000000000000000000000000000000000600052603260045260246000fd5b60200201518152602001886001600281106107fd577f4e487b7100000000000000000000000000000000000000000000000000000000600052603260045260246000fd5b602002015160016002811061083b577f4e487b7100000000000000000000000000000000000000000000000000000000600052603260045260246000fd5b60200201518152508152508160200181905250604051806040016040528085600060028110610893577f4e487b7100000000000000000000000000000000000000000000000000000000600052603260045260246000fd5b60200201518152602001856001600281106108d7577f4e487b7100000000000000000000000000000000000000000000000000000000600052603260045260246000fd5b602002015181525081604001819052506000600467ffffffffffffffff81111561092a577f4e487b7100000000000000000000000000000000000000000000000000000000600052604160045260246000fd5b6040519080825280602002602001820160405280156109585781602001602082028036833780820191505090505b50905060005b60048110156109fd578481600481106109a0577f4e487b7100000000000000000000000000000000000000000000000000000000600052603260045260246000fd5b60200201518282815181106109de577f4e487b7100000000000000000000000000000000000000000000000000000000600052603260045260246000fd5b60200260200101818152505080806109f5906136df565b91505061095e565b506000610a0a82846110b6565b1415610a1b57600192505050610a22565b6000925050505b949350505050565b610a326110ae565b73ffffffffffffffffffffffffffffffffffffffff16610a50610c88565b73ffffffffffffffffffffffffffffffffffffffff1614610aa6576040517f08c379a0000000000000000000000000000000000000000000000000000000008152600401610a9d9061328b565b60405180910390fd5b80600360008473ffffffffffffffffffffffffffffffffffffffff1673ffffffffffffffffffffffffffffffffffffffff168152602001908152602001600020819055505050565b6000600482604051610b00919061313e565b9081526020016040518091039020549050919050565b610b1e6110ae565b73ffffffffffffffffffffffffffffffffffffffff16610b3c610c88565b73ffffffffffffffffffffffffffffffffffffffff1614610b92576040517f08c379a0000000000000000000000000000000000000000000000000000000008152600401610b899061328b565b60405180910390fd5b610b9c6000611341565b565b60006002600083815260200190815260200160002060000160009054906101000a900460ff169050919050565b6000600482604051610bdd919061313e565b90815260200160405180910390208190555050565b6000600586604051610c04919061313e565b90815260200160405180910390205414610c53576040517f08c379a0000000000000000000000000000000000000000000000000000000008152600401610c4a906131cb565b60405180910390fd5b83600586604051610c64919061313e565b908152602001604051809103902081905550610c81848484611405565b5050505050565b60008060009054906101000a900473ffffffffffffffffffffffffffffffffffffffff16905090565b600060026000838152602001908152602001600020600101549050919050565b600060026000838152602001908152602001600020600201549050919050565b610cf96110ae565b73ffffffffffffffffffffffffffffffffffffffff16610d17610c88565b73ffffffffffffffffffffffffffffffffffffffff1614610d6d576040517f08c379a0000000000000000000000000000000000000000000000000000000008152600401610d649061328b565b60405180910390fd5b600073ffffffffffffffffffffffffffffffffffffffff168173ffffffffffffffffffffffffffffffffffffffff161415610ddd576040517f08c379a0000000000000000000000000000000000000000000000000000000008152600401610dd49061318b565b60405180910390fd5b610de681611341565b50565b60606000821415610e31576040518060400160405280600181526020017f30000000000000000000000000000000000000000000000000000000000000008152509050610f91565b600082905060005b60008214610e63578080610e4c906136df565b915050600a82610e5c9190613558565b9150610e39565b60008167ffffffffffffffff811115610ea5577f4e487b7100000000000000000000000000000000000000000000000000000000600052604160045260246000fd5b6040519080825280601f01601f191660200182016040528015610ed75781602001600182028036833780820191505090505b5090505b60008514610f8a57600182610ef091906135e3565b9150600a85610eff9190613728565b6030610f0b9190613502565b60f81b818381518110610f47577f4e487b7100000000000000000000000000000000000000000000000000000000600052603260045260246000fd5b60200101907effffffffffffffffffffffffffffffffffffffffffffffffffffffffffffff1916908160001a905350600a85610f839190613558565b9450610edb565b8093505050505b919050565b6000610fa183610b9e565b60ff161415610fe5576040517f08c379a0000000000000000000000000000000000000000000000000000000008152600401610fdc9061324b565b60405180910390fd5b6002600083815260200190815260200160002073__$4c0484323457fe1a856f46a4759b553fe4$__63168703fa9091836040518363ffffffff1660e01b815260040161103292919061332b565b60006040518083038186803b15801561104a57600080fd5b505af415801561105e573d6000803e3d6000fd5b50505050600061106d83610cb1565b9050827f03fd27265b7dd1f55558bedc22a58fa3b10afb1be776e614bd5a7ba7b949940683836040516110a19291906133a6565b60405180910390a2505050565b600033905090565b6000807f30644e72e131a029b85045b68181585d2833e84879b9709143e1f593f0000001905060006110e6611573565b9050806080015151600186516110fc9190613502565b1461113c576040517f08c379a0000000000000000000000000000000000000000000000000000000008152600401611133906131eb565b60405180910390fd5b60006040518060400160405280600081526020016000815250905060005b865181101561129d578387828151811061119d577f4e487b7100000000000000000000000000000000000000000000000000000000600052603260045260246000fd5b6020026020010151106111e5576040517f08c379a00000000000000000000000000000000000000000000000000000000081526004016111dc9061326b565b60405180910390fd5b6112888261128385608001516001856111fe9190613502565b81518110611235577f4e487b7100000000000000000000000000000000000000000000000000000000600052603260045260246000fd5b60200260200101518a8581518110611276577f4e487b7100000000000000000000000000000000000000000000000000000000600052603260045260246000fd5b6020026020010151611bc3565b611d12565b91508080611295906136df565b91505061115a565b506112ed8183608001516000815181106112e0577f4e487b7100000000000000000000000000000000000000000000000000000000600052603260045260246000fd5b6020026020010151611d12565b90506113236112ff8660000151611ead565b8660200151846000015185602001518587604001518b604001518960600151611f52565b611333576001935050505061133b565b600093505050505b92915050565b60008060009054906101000a900473ffffffffffffffffffffffffffffffffffffffff169050816000806101000a81548173ffffffffffffffffffffffffffffffffffffffff021916908373ffffffffffffffffffffffffffffffffffffffff1602179055508173ffffffffffffffffffffffffffffffffffffffff168173ffffffffffffffffffffffffffffffffffffffff167f8be0079c531659141344cd1fd0a4f28419497f9722a3daafe3b4186f6b6457e060405160405180910390a35050565b7f30644e72e131a029b85045b68181585d2833e84879b9709143e1f593f00000018310611467576040517f08c379a000000000000000000000000000000000000000000000000000000000815260040161145e9061330b565b60405180910390fd5b600061147284610b9e565b60ff16146114b5576040517f08c379a00000000000000000000000000000000000000000000000000000000081526004016114ac906131ab565b60405180910390fd5b6002600084815260200190815260200160002073__$4c0484323457fe1a856f46a4759b553fe4$__63b4bdd117909184846040518463ffffffff1660e01b815260040161150493929190613354565b60006040518083038186803b15801561151c57600080fd5b505af4158015611530573d6000803e3d6000fd5b50505050827fc3082aa494e9088c2c9f0fb62a0b6bd46e6699acb94cfba35be29b95a93f68c883836040516115669291906133ea565b60405180910390a2505050565b61157b612941565b60405180604001604052807f2d4d9aa7e302d9df41749d5507949d05dbea33fbb16c643b22f599a2be6df2e281526020017f14bedd503c37ceb061d8ec60209fe345ce89830a19230301f076caff004d19268152508160000181905250604051806040016040528060405180604001604052807f0967032fcbf776d1afc985f88877f182d38480a653f2decaa9794cbc3bf3060c81526020017f0e187847ad4c798374d0d6732bf501847dd68bc0e071241e0213bc7fc13db7ab815250815260200160405180604001604052807f304cfbd1e08a704a99f5e847d93f8c3caafddec46b7a0d379da69a4d112346a781526020017f1739c1b1a457a8c7313123d24d2f9192f896b7c63eea05a9d57f06547ad0cec88152508152508160200181905250604051806040016040528060405180604001604052807f198e9393920d483a7260bfb731fb5d25f1aa493335a9e71297e485b7aef312c281526020017f1800deef121f1e76426a00665e5c4479674322d4f75edadd46debd5cd992f6ed815250815260200160405180604001604052807f090689d0585ff075ec9e99ad690c3395bc4b313370b38ef355acdadcd122975b81526020017f12c85ea5db8c6deb4aab71808dcb408fe3d1e7690c43d37b4ce6cc0166fa7daa8152508152508160400181905250604051806040016040528060405180604001604052807f0d0939ba28f92d35ad63721486321a416430e9698c5a5efaace74fc189e2d97e81526020017f2a5eda772401b1cd9861eb3ff5aa4f982800c3d7e3d39ff078e55220758f0e9b815250815260200160405180604001604052807f2bb1df31726489cbc86f271e9ce8cf03e67191c27e7c04234f93f47d1bf1043781526020017f032206c212b24da64d64d77af67fd444f9a09ce287c6c600c58d99daf94872e98152508152508160600181905250600567ffffffffffffffff811115611868577f4e487b7100000000000000000000000000000000000000000000000000000000600052604160045260246000fd5b6040519080825280602002602001820160405280156118a157816020015b61188e612988565b8152602001906001900390816118865790505b50816080018190525060405180604001604052807f053b93d0250e97451cfa997a843d15928ce0ec83edda47bb3a47f017ae37051581526020017f0ddb36607586d0fcd13c7c61681a5cc76cfb85cbac5d7770486146ef1c70da44815250816080015160008151811061193d577f4e487b7100000000000000000000000000000000000000000000000000000000600052603260045260246000fd5b602002602001018190525060405180604001604052807f1007c319595d8d81d5e7480a350a5d38895bd130e980af0fdb18d9979c00c91081526020017f01c38c3bb50c76d1721f79466086a33a1145b121cd7b370b6b2bbff80af387fd81525081608001516001815181106119db577f4e487b7100000000000000000000000000000000000000000000000000000000600052603260045260246000fd5b602002602001018190525060405180604001604052807f1ac154f92a165ede96dbd7ab394ba8e2a691dc1a505fe71d87dbf3d6318b0ede81526020017f278d8142d1277efecc142ecb28d4d6e5909936413a9ac41696a63c9e6d244b708152508160800151600281518110611a79577f4e487b7100000000000000000000000000000000000000000000000000000000600052603260045260246000fd5b602002602001018190525060405180604001604052807f15d25acdf6d84d10bd78e4c98f1d27fc5a006a11a22122e2a7d21210e4c89d1a81526020017f20f1797e2a4cb846afa4e78d8c6ed621875762034eb55f743edb453023532ec58152508160800151600381518110611b17577f4e487b7100000000000000000000000000000000000000000000000000000000600052603260045260246000fd5b602002602001018190525060405180604001604052807f04e5c327e2e5a9cef59dc85433d5703340f2acca095a9ed64adb6ba7541b3e1d81526020017f27c7a17d6a171966729bd1edf2b4d842df8bfa1669ed138d8135628b8e4848078152508160800151600481518110611bb5577f4e487b7100000000000000000000000000000000000000000000000000000000600052603260045260246000fd5b602002602001018190525090565b611bcb612988565b611bd36129a2565b836000015181600060038110611c12577f4e487b7100000000000000000000000000000000000000000000000000000000600052603260045260246000fd5b602002018181525050836020015181600160038110611c5a577f4e487b7100000000000000000000000000000000000000000000000000000000600052603260045260246000fd5b6020020181815250508281600260038110611c9e577f4e487b7100000000000000000000000000000000000000000000000000000000600052603260045260246000fd5b602002018181525050600060608360808460076107d05a03fa90508060008114611cc757611cc9565bfe5b5080611d0a576040517f08c379a0000000000000000000000000000000000000000000000000000000008152600401611d019061320b565b60405180910390fd5b505092915050565b611d1a612988565b611d226129c4565b836000015181600060048110611d61577f4e487b7100000000000000000000000000000000000000000000000000000000600052603260045260246000fd5b602002018181525050836020015181600160048110611da9577f4e487b7100000000000000000000000000000000000000000000000000000000600052603260045260246000fd5b602002018181525050826000015181600260048110611df1577f4e487b7100000000000000000000000000000000000000000000000000000000600052603260045260246000fd5b602002018181525050826020015181600360048110611e39577f4e487b7100000000000000000000000000000000000000000000000000000000600052603260045260246000fd5b602002018181525050600060608360c08460066107d05a03fa90508060008114611e6257611e64565bfe5b5080611ea5576040517f08c379a0000000000000000000000000000000000000000000000000000000008152600401611e9c906132cb565b60405180910390fd5b505092915050565b611eb5612988565b60007f30644e72e131a029b85045b68181585d97816a916871ca8d3c208c16d87cfd47905060008360000151148015611ef2575060008360200151145b15611f16576040518060400160405280600081526020016000815250915050611f4d565b604051806040016040528084600001518152602001828560200151611f3b9190613728565b83611f4691906135e3565b8152509150505b919050565b600080600467ffffffffffffffff811115611f96577f4e487b7100000000000000000000000000000000000000000000000000000000600052604160045260246000fd5b604051908082528060200260200182016040528015611fcf57816020015b611fbc612988565b815260200190600190039081611fb45790505b5090506000600467ffffffffffffffff811115612015577f4e487b7100000000000000000000000000000000000000000000000000000000600052604160045260246000fd5b60405190808252806020026020018201604052801561204e57816020015b61203b6129e6565b8152602001906001900390816120335790505b5090508a8260008151811061208c577f4e487b7100000000000000000000000000000000000000000000000000000000600052603260045260246000fd5b602002602001018190525088826001815181106120d2577f4e487b7100000000000000000000000000000000000000000000000000000000600052603260045260246000fd5b60200260200101819052508682600281518110612118577f4e487b7100000000000000000000000000000000000000000000000000000000600052603260045260246000fd5b6020026020010181905250848260038151811061215e577f4e487b7100000000000000000000000000000000000000000000000000000000600052603260045260246000fd5b602002602001018190525089816000815181106121a4577f4e487b7100000000000000000000000000000000000000000000000000000000600052603260045260246000fd5b602002602001018190525087816001815181106121ea577f4e487b7100000000000000000000000000000000000000000000000000000000600052603260045260246000fd5b60200260200101819052508581600281518110612230577f4e487b7100000000000000000000000000000000000000000000000000000000600052603260045260246000fd5b60200260200101819052508381600381518110612276577f4e487b7100000000000000000000000000000000000000000000000000000000600052603260045260246000fd5b602002602001018190525061228b828261229b565b9250505098975050505050505050565b600081518351146122e1576040517f08c379a00000000000000000000000000000000000000000000000000000000081526004016122d8906132ab565b60405180910390fd5b60008351905060006006826122f69190613589565b905060008167ffffffffffffffff81111561233a577f4e487b7100000000000000000000000000000000000000000000000000000000600052604160045260246000fd5b6040519080825280602002602001820160405280156123685781602001602082028036833780820191505090505b50905060005b8381101561284d578681815181106123af577f4e487b7100000000000000000000000000000000000000000000000000000000600052603260045260246000fd5b6020026020010151600001518260006006846123cb9190613589565b6123d59190613502565b8151811061240c577f4e487b7100000000000000000000000000000000000000000000000000000000600052603260045260246000fd5b602002602001018181525050868181518110612451577f4e487b7100000000000000000000000000000000000000000000000000000000600052603260045260246000fd5b60200260200101516020015182600160068461246d9190613589565b6124779190613502565b815181106124ae577f4e487b7100000000000000000000000000000000000000000000000000000000600052603260045260246000fd5b6020026020010181815250508581815181106124f3577f4e487b7100000000000000000000000000000000000000000000000000000000600052603260045260246000fd5b602002602001015160000151600060028110612538577f4e487b7100000000000000000000000000000000000000000000000000000000600052603260045260246000fd5b602002015182600260068461254d9190613589565b6125579190613502565b8151811061258e577f4e487b7100000000000000000000000000000000000000000000000000000000600052603260045260246000fd5b6020026020010181815250508581815181106125d3577f4e487b7100000000000000000000000000000000000000000000000000000000600052603260045260246000fd5b602002602001015160000151600160028110612618577f4e487b7100000000000000000000000000000000000000000000000000000000600052603260045260246000fd5b602002015182600360068461262d9190613589565b6126379190613502565b8151811061266e577f4e487b7100000000000000000000000000000000000000000000000000000000600052603260045260246000fd5b6020026020010181815250508581815181106126b3577f4e487b7100000000000000000000000000000000000000000000000000000000600052603260045260246000fd5b6020026020010151602001516000600281106126f8577f4e487b7100000000000000000000000000000000000000000000000000000000600052603260045260246000fd5b602002015182600460068461270d9190613589565b6127179190613502565b8151811061274e577f4e487b7100000000000000000000000000000000000000000000000000000000600052603260045260246000fd5b602002602001018181525050858181518110612793577f4e487b7100000000000000000000000000000000000000000000000000000000600052603260045260246000fd5b6020026020010151602001516001600281106127d8577f4e487b7100000000000000000000000000000000000000000000000000000000600052603260045260246000fd5b60200201518260056006846127ed9190613589565b6127f79190613502565b8151811061282e577f4e487b7100000000000000000000000000000000000000000000000000000000600052603260045260246000fd5b6020026020010181815250508080612845906136df565b91505061236e565b50612856612a0c565b6000602082602086026020860160086107d05a03fa9050806000811461287b5761287d565bfe5b50806128be576040517f08c379a00000000000000000000000000000000000000000000000000000000081526004016128b5906132eb565b60405180910390fd5b6000826000600181106128fa577f4e487b7100000000000000000000000000000000000000000000000000000000600052603260045260246000fd5b602002015114159550505050505092915050565b6040518060600160405280612921612988565b815260200161292e6129e6565b815260200161293b612988565b81525090565b6040518060a00160405280612954612988565b81526020016129616129e6565b815260200161296e6129e6565b815260200161297b6129e6565b8152602001606081525090565b604051806040016040528060008152602001600081525090565b6040518060600160405280600390602082028036833780820191505090505090565b6040518060800160405280600490602082028036833780820191505090505090565b60405180604001604052806129f9612a2e565b8152602001612a06612a2e565b81525090565b6040518060200160405280600190602082028036833780820191505090505090565b6040518060400160405280600290602082028036833780820191505090505090565b6000612a63612a5e84613438565b613413565b90508082856040860282011115612a7957600080fd5b60005b85811015612aa95781612a8f8882612bf3565b845260208401935060408301925050600181019050612a7c565b5050509392505050565b6000612ac6612ac18461345e565b613413565b90508082856020860282011115612adc57600080fd5b60005b85811015612b0c5781612af28882612c6b565b845260208401935060208301925050600181019050612adf565b5050509392505050565b6000612b29612b2484613484565b613413565b90508082856020860282011115612b3f57600080fd5b60005b85811015612b6f5781612b558882612c6b565b845260208401935060208301925050600181019050612b42565b5050509392505050565b6000612b8c612b87846134aa565b613413565b905082815260208101848484011115612ba457600080fd5b612baf84828561366c565b509392505050565b600081359050612bc681613af0565b92915050565b600082601f830112612bdd57600080fd5b6002612bea848285612a50565b91505092915050565b600082601f830112612c0457600080fd5b6002612c11848285612ab3565b91505092915050565b600082601f830112612c2b57600080fd5b6004612c38848285612b16565b91505092915050565b600082601f830112612c5257600080fd5b8135612c62848260208601612b79565b91505092915050565b600081359050612c7a81613b07565b92915050565b600081359050612c8f81613b1e565b92915050565b600060208284031215612ca757600080fd5b6000612cb584828501612bb7565b91505092915050565b60008060408385031215612cd157600080fd5b6000612cdf85828601612bb7565b9250506020612cf085828601612c6b565b9150509250929050565b6000806000806101808587031215612d1157600080fd5b6000612d1f87828801612bf3565b9450506040612d3087828801612bcc565b93505060c0612d4187828801612bf3565b925050610100612d5387828801612c1a565b91505092959194509250565b6000806000806000806101c08789031215612d7957600080fd5b6000612d8789828a01612bf3565b9650506040612d9889828a01612bcc565b95505060c0612da989828a01612bf3565b945050610100612dbb89828a01612c1a565b935050610180612dcd89828a01612bb7565b9250506101a0612ddf89828a01612c6b565b9150509295509295509295565b600060208284031215612dfe57600080fd5b600082013567ffffffffffffffff811115612e1857600080fd5b612e2484828501612c41565b91505092915050565b600080600080600060a08688031215612e4557600080fd5b600086013567ffffffffffffffff811115612e5f57600080fd5b612e6b88828901612c41565b9550506020612e7c88828901612c6b565b9450506040612e8d88828901612c80565b9350506060612e9e88828901612c6b565b9250506080612eaf88828901612bb7565b9150509295509295909350565b600060208284031215612ece57600080fd5b6000612edc84828501612c6b565b91505092915050565b612eee81613617565b82525050565b612efd81613629565b82525050565b6000612f0e826134db565b612f1881856134f7565b9350612f2881856020860161367b565b80840191505092915050565b6000612f416026836134e6565b9150612f4c826137f7565b604082019050919050565b6000612f646025836134e6565b9150612f6f82613846565b604082019050919050565b6000612f876024836134e6565b9150612f9282613895565b604082019050919050565b6000612faa6012836134e6565b9150612fb5826138e4565b602082019050919050565b6000612fcd6012836134e6565b9150612fd88261390d565b602082019050919050565b6000612ff06021836134e6565b9150612ffb82613936565b604082019050919050565b60006130136025836134e6565b915061301e82613985565b604082019050919050565b6000613036601f836134e6565b9150613041826139d4565b602082019050919050565b60006130596020836134e6565b9150613064826139fd565b602082019050919050565b600061307c6016836134e6565b915061308782613a26565b602082019050919050565b600061309f6012836134e6565b91506130aa82613a4f565b602082019050919050565b60006130c26015836134e6565b91506130cd82613a78565b602082019050919050565b60006130e56036836134e6565b91506130f082613aa1565b604082019050919050565b8082525050565b61310b81613655565b82525050565b61311a81613655565b82525050565b6131298161365f565b82525050565b6131388161365f565b82525050565b600061314a8284612f03565b915081905092915050565b600060208201905061316a6000830184612ee5565b92915050565b60006020820190506131856000830184612ef4565b92915050565b600060208201905081810360008301526131a481612f34565b9050919050565b600060208201905081810360008301526131c481612f57565b9050919050565b600060208201905081810360008301526131e481612f7a565b9050919050565b6000602082019050818103600083015261320481612f9d565b9050919050565b6000602082019050818103600083015261322481612fc0565b9050919050565b6000602082019050818103600083015261324481612fe3565b9050919050565b6000602082019050818103600083015261326481613006565b9050919050565b6000602082019050818103600083015261328481613029565b9050919050565b600060208201905081810360008301526132a48161304c565b9050919050565b600060208201905081810360008301526132c48161306f565b9050919050565b600060208201905081810360008301526132e481613092565b9050919050565b60006020820190508181036000830152613304816130b5565b9050919050565b60006020820190508181036000830152613324816130d8565b9050919050565b600060408201905061334060008301856130fb565b61334d6020830184613111565b9392505050565b600060608201905061336960008301866130fb565b613376602083018561312f565b6133836040830184613111565b949350505050565b60006020820190506133a06000830184613102565b92915050565b60006040820190506133bb6000830185613102565b6133c86020830184613102565b9392505050565b60006020820190506133e46000830184613120565b92915050565b60006040820190506133ff6000830185613120565b61340c6020830184613102565b9392505050565b600061341d61342e565b905061342982826136ae565b919050565b6000604051905090565b600067ffffffffffffffff821115613453576134526137b7565b5b602082029050919050565b600067ffffffffffffffff821115613479576134786137b7565b5b602082029050919050565b600067ffffffffffffffff82111561349f5761349e6137b7565b5b602082029050919050565b600067ffffffffffffffff8211156134c5576134c46137b7565b5b6134ce826137e6565b9050602081019050919050565b600081519050919050565b600082825260208201905092915050565b600081905092915050565b600061350d82613655565b915061351883613655565b9250827fffffffffffffffffffffffffffffffffffffffffffffffffffffffffffffffff0382111561354d5761354c613759565b5b828201905092915050565b600061356382613655565b915061356e83613655565b92508261357e5761357d613788565b5b828204905092915050565b600061359482613655565b915061359f83613655565b9250817fffffffffffffffffffffffffffffffffffffffffffffffffffffffffffffffff04831182151516156135d8576135d7613759565b5b828202905092915050565b60006135ee82613655565b91506135f983613655565b92508282101561360c5761360b613759565b5b828203905092915050565b600061362282613635565b9050919050565b60008115159050919050565b600073ffffffffffffffffffffffffffffffffffffffff82169050919050565b6000819050919050565b600060ff82169050919050565b82818337600083830152505050565b60005b8381101561369957808201518184015260208101905061367e565b838111156136a8576000848401525b50505050565b6136b7826137e6565b810181811067ffffffffffffffff821117156136d6576136d56137b7565b5b80604052505050565b60006136ea82613655565b91507fffffffffffffffffffffffffffffffffffffffffffffffffffffffffffffffff82141561371d5761371c613759565b5b600182019050919050565b600061373382613655565b915061373e83613655565b92508261374e5761374d613788565b5b828206905092915050565b7f4e487b7100000000000000000000000000000000000000000000000000000000600052601160045260246000fd5b7f4e487b7100000000000000000000000000000000000000000000000000000000600052601260045260246000fd5b7f4e487b7100000000000000000000000000000000000000000000000000000000600052604160045260246000fd5b6000601f19601f8301169050919050565b7f4f776e61626c653a206e6577206f776e657220697320746865207a65726f206160008201527f6464726573730000000000000000000000000000000000000000000000000000602082015250565b7f53656d6170686f726547726f7570733a2067726f757020616c7265616479206560008201527f7869737473000000000000000000000000000000000000000000000000000000602082015250565b7f47726f757020666f72207468697320646f6d61696e20616c726561647920657860008201527f6973747300000000000000000000000000000000000000000000000000000000602082015250565b7f76657269666965722d6261642d696e7075740000000000000000000000000000600082015250565b7f70616972696e672d6d756c2d6661696c65640000000000000000000000000000600082015250565b7f7075626c696320686173682073746f72656420646f6573206e6f74206d61746360008201527f6800000000000000000000000000000000000000000000000000000000000000602082015250565b7f53656d6170686f726547726f7570733a2067726f757020646f6573206e6f742060008201527f6578697374000000000000000000000000000000000000000000000000000000602082015250565b7f76657269666965722d6774652d736e61726b2d7363616c61722d6669656c6400600082015250565b7f4f776e61626c653a2063616c6c6572206973206e6f7420746865206f776e6572600082015250565b7f70616972696e672d6c656e677468732d6661696c656400000000000000000000600082015250565b7f70616972696e672d6164642d6661696c65640000000000000000000000000000600082015250565b7f70616972696e672d6f70636f64652d6661696c65640000000000000000000000600082015250565b7f53656d6170686f726547726f7570733a2067726f7570206964206d757374206260008201527f65203c20534e41524b5f5343414c41525f4649454c4400000000000000000000602082015250565b613af981613617565b8114613b0457600080fd5b50565b613b1081613655565b8114613b1b57600080fd5b50565b613b278161365f565b8114613b3257600080fd5b5056fea264697066735822122007906301afc200aab64539cd7ff61c4c9e285d14bfa2cb7e514d24fe6eb1fe3e64736f6c63430008040033",
  "linkReferences": {
    "@zk-kit/incremental-merkle-tree.sol/contracts/IncrementalBinaryTree.sol": {
      "IncrementalBinaryTree": [
        {
          "length": 20,
          "start": 4366
        },
        {
          "length": 20,
          "start": 5598
        }
      ]
    }
  },
  "deployedLinkReferences": {
    "@zk-kit/incremental-merkle-tree.sol/contracts/IncrementalBinaryTree.sol": {
      "IncrementalBinaryTree": [
        {
          "length": 20,
          "start": 4090
        },
        {
          "length": 20,
          "start": 5322
        }
      ]
    }
  }
}