{
    "_format": "hh-sol-artifact-1",
    "contractName": "Auth",
    "sourceName": "contracts/auth.sol",
    "abi": [
        {
            "anonymous": false,
            "inputs": [
                {
                    "indexed": true,
                    "internalType": "address",
                    "name": "previousOwner",
                    "type": "address"
                },
                {
                    "indexed": true,
                    "internalType": "address",
                    "name": "newOwner",
                    "type": "address"
                }
            ],
            "name": "OwnershipTransferred",
            "type": "event"
        },
        {
            "inputs": [
                {
                    "internalType": "address",
                    "name": "pubKey",
                    "type": "address"
                },
                {
                    "internalType": "uint256",
                    "name": "hash",
                    "type": "uint256"
                }
            ],
            "name": "commitHash",
            "outputs": [],
            "stateMutability": "nonpayable",
            "type": "function"
        },
        {
            "inputs": [
                {
                    "internalType": "string",
                    "name": "commitment",
                    "type": "string"
                }
            ],
            "name": "commitIdentity",
            "outputs": [],
            "stateMutability": "nonpayable",
            "type": "function"
        },
        {
            "inputs": [
                {
                    "internalType": "address",
                    "name": "pubKey",
                    "type": "address"
                }
            ],
            "name": "getPubHash",
            "outputs": [
                {
                    "internalType": "uint256",
                    "name": "d",
                    "type": "uint256"
                }
            ],
            "stateMutability": "view",
            "type": "function"
        },
        {
            "inputs": [
                {
                    "internalType": "string",
                    "name": "commitment",
                    "type": "string"
                }
            ],
            "name": "isAuthenticated",
            "outputs": [
                {
                    "internalType": "bool",
                    "name": "r",
                    "type": "bool"
                }
            ],
            "stateMutability": "view",
            "type": "function"
        },
        {
            "inputs": [],
            "name": "owner",
            "outputs": [
                {
                    "internalType": "address",
                    "name": "",
                    "type": "address"
                }
            ],
            "stateMutability": "view",
            "type": "function"
        },
        {
            "inputs": [],
            "name": "renounceOwnership",
            "outputs": [],
            "stateMutability": "nonpayable",
            "type": "function"
        },
        {
            "inputs": [
                {
                    "internalType": "address",
                    "name": "newOwner",
                    "type": "address"
                }
            ],
            "name": "transferOwnership",
            "outputs": [],
            "stateMutability": "nonpayable",
            "type": "function"
        },
        {
            "inputs": [
                {
                    "internalType": "uint256[2]",
                    "name": "a",
                    "type": "uint256[2]"
                },
                {
                    "internalType": "uint256[2][2]",
                    "name": "b",
                    "type": "uint256[2][2]"
                },
                {
                    "internalType": "uint256[2]",
                    "name": "c",
                    "type": "uint256[2]"
                },
                {
                    "internalType": "uint256[3]",
                    "name": "input",
                    "type": "uint256[3]"
                },
                {
                    "internalType": "address",
                    "name": "pubKey",
                    "type": "address"
                },
                {
                    "internalType": "string",
                    "name": "commitment",
                    "type": "string"
                }
            ],
            "name": "verifyHash",
            "outputs": [],
            "stateMutability": "nonpayable",
            "type": "function"
        },
        {
            "inputs": [
                {
                    "internalType": "uint256[2]",
                    "name": "a",
                    "type": "uint256[2]"
                },
                {
                    "internalType": "uint256[2][2]",
                    "name": "b",
                    "type": "uint256[2][2]"
                },
                {
                    "internalType": "uint256[2]",
                    "name": "c",
                    "type": "uint256[2]"
                },
                {
                    "internalType": "uint256[3]",
                    "name": "input",
                    "type": "uint256[3]"
                }
            ],
            "name": "verifyProof",
            "outputs": [
                {
                    "internalType": "bool",
                    "name": "r",
                    "type": "bool"
                }
            ],
            "stateMutability": "view",
            "type": "function"
        }
    ],
    "bytecode": "0x60806040523480156200001157600080fd5b5062000032620000266200003860201b60201c565b6200004060201b60201c565b62000104565b600033905090565b60008060009054906101000a900473ffffffffffffffffffffffffffffffffffffffff169050816000806101000a81548173ffffffffffffffffffffffffffffffffffffffff021916908373ffffffffffffffffffffffffffffffffffffffff1602179055508173ffffffffffffffffffffffffffffffffffffffff168173ffffffffffffffffffffffffffffffffffffffff167f8be0079c531659141344cd1fd0a4f28419497f9722a3daafe3b4186f6b6457e060405160405180910390a35050565b612f8980620001146000396000f3fe608060405234801561001057600080fd5b50600436106100935760003560e01c80636c4f05ba116100665780636c4f05ba14610130578063715018a61461016057806378f1f4b21461016a5780638da5cb5b14610186578063f2fde38b146101a457610093565b806311479fea1461009857806328f051af146100c8578063642a9894146100f8578063647cbcc214610114575b600080fd5b6100b260048036038101906100ad9190612556565b6101c0565b6040516100bf919061286c565b60405180910390f35b6100e260048036038101906100dd91906124f1565b610674565b6040516100ef91906129a7565b60405180910390f35b610112600480360381019061010d919061251a565b610739565b005b61012e600480360381019061012991906125bb565b6107fd565b005b61014a60048036038101906101459190612660565b610913565b604051610157919061286c565b60405180910390f35b610168610948565b005b610184600480360381019061017f9190612660565b6109d0565b005b61018e610a0a565b60405161019b9190612851565b60405180910390f35b6101be60048036038101906101b991906124f1565b610a33565b005b60006101ca61217f565b60405180604001604052808760006002811061020f577f4e487b7100000000000000000000000000000000000000000000000000000000600052603260045260246000fd5b6020020151815260200187600160028110610253577f4e487b7100000000000000000000000000000000000000000000000000000000600052603260045260246000fd5b6020020151815250816000018190525060405180604001604052806040518060400160405280886000600281106102b3577f4e487b7100000000000000000000000000000000000000000000000000000000600052603260045260246000fd5b60200201516000600281106102f1577f4e487b7100000000000000000000000000000000000000000000000000000000600052603260045260246000fd5b6020020151815260200188600060028110610335577f4e487b7100000000000000000000000000000000000000000000000000000000600052603260045260246000fd5b6020020151600160028110610373577f4e487b7100000000000000000000000000000000000000000000000000000000600052603260045260246000fd5b602002015181525081526020016040518060400160405280886001600281106103c5577f4e487b7100000000000000000000000000000000000000000000000000000000600052603260045260246000fd5b6020020151600060028110610403577f4e487b7100000000000000000000000000000000000000000000000000000000600052603260045260246000fd5b6020020151815260200188600160028110610447577f4e487b7100000000000000000000000000000000000000000000000000000000600052603260045260246000fd5b6020020151600160028110610485577f4e487b7100000000000000000000000000000000000000000000000000000000600052603260045260246000fd5b602002015181525081525081602001819052506040518060400160405280856000600281106104dd577f4e487b7100000000000000000000000000000000000000000000000000000000600052603260045260246000fd5b6020020151815260200185600160028110610521577f4e487b7100000000000000000000000000000000000000000000000000000000600052603260045260246000fd5b602002015181525081604001819052506000600367ffffffffffffffff811115610574577f4e487b7100000000000000000000000000000000000000000000000000000000600052604160045260246000fd5b6040519080825280602002602001820160405280156105a25781602001602082028036833780820191505090505b50905060005b6003811015610647578481600381106105ea577f4e487b7100000000000000000000000000000000000000000000000000000000600052603260045260246000fd5b6020020151828281518110610628577f4e487b7100000000000000000000000000000000000000000000000000000000600052603260045260246000fd5b602002602001018181525050808061063f90612c50565b9150506105a8565b5060006106548284610b2b565b14156106655760019250505061066c565b6000925050505b949350505050565b600061067e610db6565b73ffffffffffffffffffffffffffffffffffffffff1661069c610a0a565b73ffffffffffffffffffffffffffffffffffffffff16146106f2576040517f08c379a00000000000000000000000000000000000000000000000000000000081526004016106e990612927565b60405180910390fd5b600160008373ffffffffffffffffffffffffffffffffffffffff1673ffffffffffffffffffffffffffffffffffffffff168152602001908152602001600020549050919050565b610741610db6565b73ffffffffffffffffffffffffffffffffffffffff1661075f610a0a565b73ffffffffffffffffffffffffffffffffffffffff16146107b5576040517f08c379a00000000000000000000000000000000000000000000000000000000081526004016107ac90612927565b60405180910390fd5b80600160008473ffffffffffffffffffffffffffffffffffffffff1673ffffffffffffffffffffffffffffffffffffffff168152602001908152602001600020819055505050565b82600060038110610837577f4e487b7100000000000000000000000000000000000000000000000000000000600052603260045260246000fd5b6020020151600160008473ffffffffffffffffffffffffffffffffffffffff1673ffffffffffffffffffffffffffffffffffffffff16815260200190815260200160002054146108bc576040517f08c379a00000000000000000000000000000000000000000000000000000000081526004016108b3906128e7565b60405180910390fd5b60006108ca878787876101c0565b9050801561090a5760016002836040516108e4919061283a565b908152602001604051809103902060006101000a81548160ff0219169083151502179055505b50505050505050565b6000600282604051610925919061283a565b908152602001604051809103902060009054906101000a900460ff169050919050565b610950610db6565b73ffffffffffffffffffffffffffffffffffffffff1661096e610a0a565b73ffffffffffffffffffffffffffffffffffffffff16146109c4576040517f08c379a00000000000000000000000000000000000000000000000000000000081526004016109bb90612927565b60405180910390fd5b6109ce6000610dbe565b565b60006002826040516109e2919061283a565b908152602001604051809103902060006101000a81548160ff02191690831515021790555050565b60008060009054906101000a900473ffffffffffffffffffffffffffffffffffffffff16905090565b610a3b610db6565b73ffffffffffffffffffffffffffffffffffffffff16610a59610a0a565b73ffffffffffffffffffffffffffffffffffffffff1614610aaf576040517f08c379a0000000000000000000000000000000000000000000000000000000008152600401610aa690612927565b60405180910390fd5b600073ffffffffffffffffffffffffffffffffffffffff168173ffffffffffffffffffffffffffffffffffffffff161415610b1f576040517f08c379a0000000000000000000000000000000000000000000000000000000008152600401610b1690612887565b60405180910390fd5b610b2881610dbe565b50565b6000807f30644e72e131a029b85045b68181585d2833e84879b9709143e1f593f000000190506000610b5b610e82565b905080608001515160018651610b719190612ab1565b14610bb1576040517f08c379a0000000000000000000000000000000000000000000000000000000008152600401610ba8906128a7565b60405180910390fd5b60006040518060400160405280600081526020016000815250905060005b8651811015610d125783878281518110610c12577f4e487b7100000000000000000000000000000000000000000000000000000000600052603260045260246000fd5b602002602001015110610c5a576040517f08c379a0000000000000000000000000000000000000000000000000000000008152600401610c5190612907565b60405180910390fd5b610cfd82610cf88560800151600185610c739190612ab1565b81518110610caa577f4e487b7100000000000000000000000000000000000000000000000000000000600052603260045260246000fd5b60200260200101518a8581518110610ceb577f4e487b7100000000000000000000000000000000000000000000000000000000600052603260045260246000fd5b6020026020010151611434565b611583565b91508080610d0a90612c50565b915050610bcf565b50610d62818360800151600081518110610d55577f4e487b7100000000000000000000000000000000000000000000000000000000600052603260045260246000fd5b6020026020010151611583565b9050610d98610d74866000015161171e565b8660200151846000015185602001518587604001518b6040015189606001516117c3565b610da85760019350505050610db0565b600093505050505b92915050565b600033905090565b60008060009054906101000a900473ffffffffffffffffffffffffffffffffffffffff169050816000806101000a81548173ffffffffffffffffffffffffffffffffffffffff021916908373ffffffffffffffffffffffffffffffffffffffff1602179055508173ffffffffffffffffffffffffffffffffffffffff168173ffffffffffffffffffffffffffffffffffffffff167f8be0079c531659141344cd1fd0a4f28419497f9722a3daafe3b4186f6b6457e060405160405180910390a35050565b610e8a6121b2565b60405180604001604052807f2d4d9aa7e302d9df41749d5507949d05dbea33fbb16c643b22f599a2be6df2e281526020017f14bedd503c37ceb061d8ec60209fe345ce89830a19230301f076caff004d19268152508160000181905250604051806040016040528060405180604001604052807f0967032fcbf776d1afc985f88877f182d38480a653f2decaa9794cbc3bf3060c81526020017f0e187847ad4c798374d0d6732bf501847dd68bc0e071241e0213bc7fc13db7ab815250815260200160405180604001604052807f304cfbd1e08a704a99f5e847d93f8c3caafddec46b7a0d379da69a4d112346a781526020017f1739c1b1a457a8c7313123d24d2f9192f896b7c63eea05a9d57f06547ad0cec88152508152508160200181905250604051806040016040528060405180604001604052807f198e9393920d483a7260bfb731fb5d25f1aa493335a9e71297e485b7aef312c281526020017f1800deef121f1e76426a00665e5c4479674322d4f75edadd46debd5cd992f6ed815250815260200160405180604001604052807f090689d0585ff075ec9e99ad690c3395bc4b313370b38ef355acdadcd122975b81526020017f12c85ea5db8c6deb4aab71808dcb408fe3d1e7690c43d37b4ce6cc0166fa7daa8152508152508160400181905250604051806040016040528060405180604001604052807f219344b09c5274616cc09a6df817e3e28bd0cf28b08da9ab3659e2255cdbff8a81526020017f2e664621bb635c04997e0b4f6dcb1cb4356b65267e708174aa569564df0d746d815250815260200160405180604001604052807f1a586e3133881bebd567ab5f8cb358e046eb4e670bb36bee9eb652b7e787735d81526020017f0b47cbfa9380494c7fdd58a7bde5c746713439bee8c42ac0993f9a7d18a54d2a8152508152508160600181905250600467ffffffffffffffff811115611177577f4e487b7100000000000000000000000000000000000000000000000000000000600052604160045260246000fd5b6040519080825280602002602001820160405280156111b057816020015b61119d6121f9565b8152602001906001900390816111955790505b50816080018190525060405180604001604052807f1d4fb2354fc30058763fa5dafb25e674529210d106c3f746cc9b91e938e8520b81526020017f203a1716d2ee5086a3488fbbfbc880c487ab349977e33b191e9fdfcb4875cc88815250816080015160008151811061124c577f4e487b7100000000000000000000000000000000000000000000000000000000600052603260045260246000fd5b602002602001018190525060405180604001604052807f2b3fd802eef38c93f5034d0db870351242de5d8ee244af5df13b9c1bd49d404081526020017f1a4388794d838c65194a21dc29d8afde20ab19cb9768b85871fe16ffd1e8eec581525081608001516001815181106112ea577f4e487b7100000000000000000000000000000000000000000000000000000000600052603260045260246000fd5b602002602001018190525060405180604001604052807f17b502b89d84a7d447af44896cbfe117e6fc6c4a0a1b27e5605477c1b36a8fdf81526020017f1ae480587312763032eb3cd10196ffa5f9b808ab20ace006a39456b065fa3b0d8152508160800151600281518110611388577f4e487b7100000000000000000000000000000000000000000000000000000000600052603260045260246000fd5b602002602001018190525060405180604001604052807f2649bea5674a85d7fa059b4bdd0585defbceda4a0ed336f0df1c0740324aeb3e81526020017f27ca2a426de78625bceab4456191ed2d312888c75b9ef56475eebe9b277b4cc58152508160800151600381518110611426577f4e487b7100000000000000000000000000000000000000000000000000000000600052603260045260246000fd5b602002602001018190525090565b61143c6121f9565b611444612213565b836000015181600060038110611483577f4e487b7100000000000000000000000000000000000000000000000000000000600052603260045260246000fd5b6020020181815250508360200151816001600381106114cb577f4e487b7100000000000000000000000000000000000000000000000000000000600052603260045260246000fd5b602002018181525050828160026003811061150f577f4e487b7100000000000000000000000000000000000000000000000000000000600052603260045260246000fd5b602002018181525050600060608360808460076107d05a03fa905080600081146115385761153a565bfe5b508061157b576040517f08c379a0000000000000000000000000000000000000000000000000000000008152600401611572906128c7565b60405180910390fd5b505092915050565b61158b6121f9565b611593612235565b8360000151816000600481106115d2577f4e487b7100000000000000000000000000000000000000000000000000000000600052603260045260246000fd5b60200201818152505083602001518160016004811061161a577f4e487b7100000000000000000000000000000000000000000000000000000000600052603260045260246000fd5b602002018181525050826000015181600260048110611662577f4e487b7100000000000000000000000000000000000000000000000000000000600052603260045260246000fd5b6020020181815250508260200151816003600481106116aa577f4e487b7100000000000000000000000000000000000000000000000000000000600052603260045260246000fd5b602002018181525050600060608360c08460066107d05a03fa905080600081146116d3576116d5565bfe5b5080611716576040517f08c379a000000000000000000000000000000000000000000000000000000000815260040161170d90612967565b60405180910390fd5b505092915050565b6117266121f9565b60007f30644e72e131a029b85045b68181585d97816a916871ca8d3c208c16d87cfd47905060008360000151148015611763575060008360200151145b156117875760405180604001604052806000815260200160008152509150506117be565b6040518060400160405280846000015181526020018285602001516117ac9190612c99565b836117b79190612b61565b8152509150505b919050565b600080600467ffffffffffffffff811115611807577f4e487b7100000000000000000000000000000000000000000000000000000000600052604160045260246000fd5b60405190808252806020026020018201604052801561184057816020015b61182d6121f9565b8152602001906001900390816118255790505b5090506000600467ffffffffffffffff811115611886577f4e487b7100000000000000000000000000000000000000000000000000000000600052604160045260246000fd5b6040519080825280602002602001820160405280156118bf57816020015b6118ac612257565b8152602001906001900390816118a45790505b5090508a826000815181106118fd577f4e487b7100000000000000000000000000000000000000000000000000000000600052603260045260246000fd5b60200260200101819052508882600181518110611943577f4e487b7100000000000000000000000000000000000000000000000000000000600052603260045260246000fd5b60200260200101819052508682600281518110611989577f4e487b7100000000000000000000000000000000000000000000000000000000600052603260045260246000fd5b602002602001018190525084826003815181106119cf577f4e487b7100000000000000000000000000000000000000000000000000000000600052603260045260246000fd5b60200260200101819052508981600081518110611a15577f4e487b7100000000000000000000000000000000000000000000000000000000600052603260045260246000fd5b60200260200101819052508781600181518110611a5b577f4e487b7100000000000000000000000000000000000000000000000000000000600052603260045260246000fd5b60200260200101819052508581600281518110611aa1577f4e487b7100000000000000000000000000000000000000000000000000000000600052603260045260246000fd5b60200260200101819052508381600381518110611ae7577f4e487b7100000000000000000000000000000000000000000000000000000000600052603260045260246000fd5b6020026020010181905250611afc8282611b0c565b9250505098975050505050505050565b60008151835114611b52576040517f08c379a0000000000000000000000000000000000000000000000000000000008152600401611b4990612947565b60405180910390fd5b6000835190506000600682611b679190612b07565b905060008167ffffffffffffffff811115611bab577f4e487b7100000000000000000000000000000000000000000000000000000000600052604160045260246000fd5b604051908082528060200260200182016040528015611bd95781602001602082028036833780820191505090505b50905060005b838110156120be57868181518110611c20577f4e487b7100000000000000000000000000000000000000000000000000000000600052603260045260246000fd5b602002602001015160000151826000600684611c3c9190612b07565b611c469190612ab1565b81518110611c7d577f4e487b7100000000000000000000000000000000000000000000000000000000600052603260045260246000fd5b602002602001018181525050868181518110611cc2577f4e487b7100000000000000000000000000000000000000000000000000000000600052603260045260246000fd5b602002602001015160200151826001600684611cde9190612b07565b611ce89190612ab1565b81518110611d1f577f4e487b7100000000000000000000000000000000000000000000000000000000600052603260045260246000fd5b602002602001018181525050858181518110611d64577f4e487b7100000000000000000000000000000000000000000000000000000000600052603260045260246000fd5b602002602001015160000151600060028110611da9577f4e487b7100000000000000000000000000000000000000000000000000000000600052603260045260246000fd5b6020020151826002600684611dbe9190612b07565b611dc89190612ab1565b81518110611dff577f4e487b7100000000000000000000000000000000000000000000000000000000600052603260045260246000fd5b602002602001018181525050858181518110611e44577f4e487b7100000000000000000000000000000000000000000000000000000000600052603260045260246000fd5b602002602001015160000151600160028110611e89577f4e487b7100000000000000000000000000000000000000000000000000000000600052603260045260246000fd5b6020020151826003600684611e9e9190612b07565b611ea89190612ab1565b81518110611edf577f4e487b7100000000000000000000000000000000000000000000000000000000600052603260045260246000fd5b602002602001018181525050858181518110611f24577f4e487b7100000000000000000000000000000000000000000000000000000000600052603260045260246000fd5b602002602001015160200151600060028110611f69577f4e487b7100000000000000000000000000000000000000000000000000000000600052603260045260246000fd5b6020020151826004600684611f7e9190612b07565b611f889190612ab1565b81518110611fbf577f4e487b7100000000000000000000000000000000000000000000000000000000600052603260045260246000fd5b602002602001018181525050858181518110612004577f4e487b7100000000000000000000000000000000000000000000000000000000600052603260045260246000fd5b602002602001015160200151600160028110612049577f4e487b7100000000000000000000000000000000000000000000000000000000600052603260045260246000fd5b602002015182600560068461205e9190612b07565b6120689190612ab1565b8151811061209f577f4e487b7100000000000000000000000000000000000000000000000000000000600052603260045260246000fd5b60200260200101818152505080806120b690612c50565b915050611bdf565b506120c761227d565b6000602082602086026020860160086107d05a03fa905080600081146120ec576120ee565bfe5b508061212f576040517f08c379a000000000000000000000000000000000000000000000000000000000815260040161212690612987565b60405180910390fd5b60008260006001811061216b577f4e487b7100000000000000000000000000000000000000000000000000000000600052603260045260246000fd5b602002015114159550505050505092915050565b60405180606001604052806121926121f9565b815260200161219f612257565b81526020016121ac6121f9565b81525090565b6040518060a001604052806121c56121f9565b81526020016121d2612257565b81526020016121df612257565b81526020016121ec612257565b8152602001606081525090565b604051806040016040528060008152602001600081525090565b6040518060600160405280600390602082028036833780820191505090505090565b6040518060800160405280600490602082028036833780820191505090505090565b604051806040016040528061226a61229f565b815260200161227761229f565b81525090565b6040518060200160405280600190602082028036833780820191505090505090565b6040518060400160405280600290602082028036833780820191505090505090565b60006122d46122cf846129e7565b6129c2565b905080828560408602820111156122ea57600080fd5b60005b8581101561231a57816123008882612464565b8452602084019350604083019250506001810190506122ed565b5050509392505050565b600061233761233284612a0d565b6129c2565b9050808285602086028201111561234d57600080fd5b60005b8581101561237d578161236388826124dc565b845260208401935060208301925050600181019050612350565b5050509392505050565b600061239a61239584612a33565b6129c2565b905080828560208602820111156123b057600080fd5b60005b858110156123e057816123c688826124dc565b8452602084019350602083019250506001810190506123b3565b5050509392505050565b60006123fd6123f884612a59565b6129c2565b90508281526020810184848401111561241557600080fd5b612420848285612bdd565b509392505050565b60008135905061243781612f25565b92915050565b600082601f83011261244e57600080fd5b600261245b8482856122c1565b91505092915050565b600082601f83011261247557600080fd5b6002612482848285612324565b91505092915050565b600082601f83011261249c57600080fd5b60036124a9848285612387565b91505092915050565b600082601f8301126124c357600080fd5b81356124d38482602086016123ea565b91505092915050565b6000813590506124eb81612f3c565b92915050565b60006020828403121561250357600080fd5b600061251184828501612428565b91505092915050565b6000806040838503121561252d57600080fd5b600061253b85828601612428565b925050602061254c858286016124dc565b9150509250929050565b600080600080610160858703121561256d57600080fd5b600061257b87828801612464565b945050604061258c8782880161243d565b93505060c061259d87828801612464565b9250506101006125af8782880161248b565b91505092959194509250565b6000806000806000806101a087890312156125d557600080fd5b60006125e389828a01612464565b96505060406125f489828a0161243d565b95505060c061260589828a01612464565b94505061010061261789828a0161248b565b93505061016061262989828a01612428565b92505061018087013567ffffffffffffffff81111561264757600080fd5b61265389828a016124b2565b9150509295509295509295565b60006020828403121561267257600080fd5b600082013567ffffffffffffffff81111561268c57600080fd5b612698848285016124b2565b91505092915050565b6126aa81612b95565b82525050565b6126b981612ba7565b82525050565b60006126ca82612a8a565b6126d48185612aa6565b93506126e4818560208601612bec565b80840191505092915050565b60006126fd602683612a95565b915061270882612d68565b604082019050919050565b6000612720601283612a95565b915061272b82612db7565b602082019050919050565b6000612743601283612a95565b915061274e82612de0565b602082019050919050565b6000612766602183612a95565b915061277182612e09565b604082019050919050565b6000612789601f83612a95565b915061279482612e58565b602082019050919050565b60006127ac602083612a95565b91506127b782612e81565b602082019050919050565b60006127cf601683612a95565b91506127da82612eaa565b602082019050919050565b60006127f2601283612a95565b91506127fd82612ed3565b602082019050919050565b6000612815601583612a95565b915061282082612efc565b602082019050919050565b61283481612bd3565b82525050565b600061284682846126bf565b915081905092915050565b600060208201905061286660008301846126a1565b92915050565b600060208201905061288160008301846126b0565b92915050565b600060208201905081810360008301526128a0816126f0565b9050919050565b600060208201905081810360008301526128c081612713565b9050919050565b600060208201905081810360008301526128e081612736565b9050919050565b6000602082019050818103600083015261290081612759565b9050919050565b600060208201905081810360008301526129208161277c565b9050919050565b600060208201905081810360008301526129408161279f565b9050919050565b60006020820190508181036000830152612960816127c2565b9050919050565b60006020820190508181036000830152612980816127e5565b9050919050565b600060208201905081810360008301526129a081612808565b9050919050565b60006020820190506129bc600083018461282b565b92915050565b60006129cc6129dd565b90506129d88282612c1f565b919050565b6000604051905090565b600067ffffffffffffffff821115612a0257612a01612d28565b5b602082029050919050565b600067ffffffffffffffff821115612a2857612a27612d28565b5b602082029050919050565b600067ffffffffffffffff821115612a4e57612a4d612d28565b5b602082029050919050565b600067ffffffffffffffff821115612a7457612a73612d28565b5b612a7d82612d57565b9050602081019050919050565b600081519050919050565b600082825260208201905092915050565b600081905092915050565b6000612abc82612bd3565b9150612ac783612bd3565b9250827fffffffffffffffffffffffffffffffffffffffffffffffffffffffffffffffff03821115612afc57612afb612cca565b5b828201905092915050565b6000612b1282612bd3565b9150612b1d83612bd3565b9250817fffffffffffffffffffffffffffffffffffffffffffffffffffffffffffffffff0483118215151615612b5657612b55612cca565b5b828202905092915050565b6000612b6c82612bd3565b9150612b7783612bd3565b925082821015612b8a57612b89612cca565b5b828203905092915050565b6000612ba082612bb3565b9050919050565b60008115159050919050565b600073ffffffffffffffffffffffffffffffffffffffff82169050919050565b6000819050919050565b82818337600083830152505050565b60005b83811015612c0a578082015181840152602081019050612bef565b83811115612c19576000848401525b50505050565b612c2882612d57565b810181811067ffffffffffffffff82111715612c4757612c46612d28565b5b80604052505050565b6000612c5b82612bd3565b91507fffffffffffffffffffffffffffffffffffffffffffffffffffffffffffffffff821415612c8e57612c8d612cca565b5b600182019050919050565b6000612ca482612bd3565b9150612caf83612bd3565b925082612cbf57612cbe612cf9565b5b828206905092915050565b7f4e487b7100000000000000000000000000000000000000000000000000000000600052601160045260246000fd5b7f4e487b7100000000000000000000000000000000000000000000000000000000600052601260045260246000fd5b7f4e487b7100000000000000000000000000000000000000000000000000000000600052604160045260246000fd5b6000601f19601f8301169050919050565b7f4f776e61626c653a206e6577206f776e657220697320746865207a65726f206160008201527f6464726573730000000000000000000000000000000000000000000000000000602082015250565b7f76657269666965722d6261642d696e7075740000000000000000000000000000600082015250565b7f70616972696e672d6d756c2d6661696c65640000000000000000000000000000600082015250565b7f7075626c696320686173682073746f72656420646f6573206e6f74206d61746360008201527f6800000000000000000000000000000000000000000000000000000000000000602082015250565b7f76657269666965722d6774652d736e61726b2d7363616c61722d6669656c6400600082015250565b7f4f776e61626c653a2063616c6c6572206973206e6f7420746865206f776e6572600082015250565b7f70616972696e672d6c656e677468732d6661696c656400000000000000000000600082015250565b7f70616972696e672d6164642d6661696c65640000000000000000000000000000600082015250565b7f70616972696e672d6f70636f64652d6661696c65640000000000000000000000600082015250565b612f2e81612b95565b8114612f3957600080fd5b50565b612f4581612bd3565b8114612f5057600080fd5b5056fea26469706673582212202a112c671397362677b2c27c477e7af56750293b0303cdc7645daf215c078d4764736f6c63430008040033",
    "linkReferences": {},
    "deployedLinkReferences": {}
}